:020000040000fa
:04005c00da020000c4
:020000040000fa
:04001000da02000010
:020000040000fa
:04025c00da020000c2
:020000040000fa
:04021000da0200000e
:020000040000fa
:04027400da020000aa
:020000040000fa
:04032400da020000f9
:020000040000fa
:04035000da020000cd
:020000040000fa
:04022c00da020000f2
:020000040000fa
:04023c00da020000e2
:020000040000fa
:04028000da0200009e
:020000040000fa
:04028400da0200009a
:020000040000fa
:04022800da020000f6
:020000040000fa
:04027800da020000a6
:020000040000fa
:04029c00da02000082
:020000040000fa
:04026000da020000be
:020000040000fa
:04026400da020000ba
:020000040000fa
:04027000da020000ae
:020000040000fa
:04027c00da020000a2
:020000040000fa
:04028800da02000096
:020000040000fa
:04028c00da02000092
:020000040000fa
:04029000da0200008e
:020000040000fa
:04029400da0200008a
:020000040000fa
:04029800da02000086
:020000040000fa
:0402a000da0200007e
:020000040000fa
:0402a400da0200007a
:020000040000fa
:0402a800da02000076
:020000040000fa
:0402ac00da02000072
:020000040000fa
:0402b000da0200006e
:020000040000fa
:0402b400da0200006a
:020000040000fa
:0402b800da02000066
:020000040000fa
:0402bc00da02000062
:020000040000fa
:0402c000da0200005e
:020000040000fa
:0402c400da0200005a
:020000040000fa
:04023800da020000e6
:020000040000fa
:0402c800da02000056
:020000040000fa
:0402cc00da02000052
:020000040000fa
:0402d000da0200004e
:020000040000fa
:0402d400da0200004a
:020000040000fa
:0402d800da02000046
:020000040000fa
:0402dc00da02000042
:020000040000fa
:0402e000da0200003e
:020000040000fa
:0402e400da0200003a
:020000040000fa
:0402e800da02000036
:020000040000fa
:0402ec00da02000032
:020000040000fa
:0402f000da0200002e
:020000040000fa
:0402f400da0200002a
:020000040000fa
:0402f800da02000026
:020000040000fa
:0402fc00da02000022
:020000040000fa
:04030000da0200001d
:020000040000fa
:04030400da02000019
:020000040000fa
:04030800da02000015
:020000040000fa
:04031400da02000009
:020000040000fa
:04031800da02000005
:020000040000fa
:04031c00da02000001
:020000040000fa
:04032000da020000fd
:020000040000fa
:04032800da020000f5
:020000040000fa
:04033000da020000ed
:020000040000fa
:04033400da020000e9
:020000040000fa
:04033800da020000e5
:020000040000fa
:04033c00da020000e1
:020000040000fa
:04034000da020000dd
:020000040000fa
:04034400da020000d9
:020000040000fa
:04034800da020000d5
:020000040000fa
:04026c00da020000b2
:020000040000fa
:04030c00da02000011
:020000040000fa
:04034c00da020000d1
:020000040000fa
:04021800da02000006
:020000040000fa
:04023000da020000ee
:020000040000fa
:04024000da020000de
:020000040000fa
:04020c00da02000012
:020000040000fa
:04031000da0200000d
:020000040000fa
:04020800da02000016
:020000040000fa
:04021c00da02000002
:020000040000fa
:04022000da020000fe
:020000040000fa
:04022400da020000fa
:020000040000fa
:04026800da020000b6
:020000040000fa
:04024c00da020000d2
:020000040000fa
:04025000da020000ce
:020000040000fa
:04021400da0200000a
:020000040000fa
:04023400c8020000fc
:020000040000fa
:04024400da020000da
:020000040000fa
:04024800da020000d6
:020000040000fa
:04032c00da020000f1
:020000040000fa
:04025400da020000ca
:020000040000fa
:04025800da020000c6
:020000040000fa
:04007400da020000ac
:020000040000fa
:04012400da020000fb
:020000040000fa
:04015000da020000cf
:020000040000fa
:04002c00da020000f4
:020000040000fa
:04003c00da020000e4
:020000040000fa
:04008000da020000a0
:020000040000fa
:04008400da0200009c
:020000040000fa
:04002800da020000f8
:020000040000fa
:04007800da020000a8
:020000040000fa
:04009c00da02000084
:020000040000fa
:04006000da020000c0
:020000040000fa
:04006400da020000bc
:020000040000fa
:04007000da020000b0
:020000040000fa
:04007c00da020000a4
:020000040000fa
:04008800da02000098
:020000040000fa
:04008c00da02000094
:020000040000fa
:04009000da02000090
:020000040000fa
:04009400da0200008c
:020000040000fa
:04009800da02000088
:020000040000fa
:0400a000da02000080
:020000040000fa
:0400a400da0200007c
:020000040000fa
:0400a800da02000078
:020000040000fa
:0400ac00da02000074
:020000040000fa
:0400b000da02000070
:020000040000fa
:0400b400da0200006c
:020000040000fa
:0400b800da02000068
:020000040000fa
:0400bc00da02000064
:020000040000fa
:0400c000da02000060
:020000040000fa
:0400c400da0200005c
:020000040000fa
:04003800da020000e8
:020000040000fa
:0400c800da02000058
:020000040000fa
:0400cc00da02000054
:020000040000fa
:0400d000da02000050
:020000040000fa
:0400d400da0200004c
:020000040000fa
:0400d800da02000048
:020000040000fa
:0400dc00da02000044
:020000040000fa
:0400e000da02000040
:020000040000fa
:0400e400da0200003c
:020000040000fa
:0400e800da02000038
:020000040000fa
:0400ec00da02000034
:020000040000fa
:0400f000da02000030
:020000040000fa
:0400f400da0200002c
:020000040000fa
:0400f800da02000028
:020000040000fa
:0400fc00da02000024
:020000040000fa
:04010000da0200001f
:020000040000fa
:04010400da0200001b
:020000040000fa
:04010800da02000017
:020000040000fa
:04011400da0200000b
:020000040000fa
:04011800da02000007
:020000040000fa
:04011c00da02000003
:020000040000fa
:04012000da020000ff
:020000040000fa
:04012800da020000f7
:020000040000fa
:04013000da020000ef
:020000040000fa
:04013400da020000eb
:020000040000fa
:04013800da020000e7
:020000040000fa
:04013c00da020000e3
:020000040000fa
:04014000da020000df
:020000040000fa
:04014400da020000db
:020000040000fa
:04014800da020000d7
:020000040000fa
:04006c00da020000b4
:020000040000fa
:04010c00da02000013
:020000040000fa
:04014c00da020000d3
:020000040000fa
:04001800da02000008
:020000040000fa
:04003000da020000f0
:020000040000fa
:04004000da020000e0
:020000040000fa
:04000c00da02000014
:020000040000fa
:04011000da0200000f
:020000040000fa
:04000800da02000018
:020000040000fa
:04001c00da02000004
:020000040000fa
:04002000da02000000
:020000040000fa
:04002400da020000fc
:020000040000fa
:04006800da020000b8
:020000040000fa
:04004c00da020000d4
:020000040000fa
:04005000da020000d0
:020000040000fa
:04001400da0200000c
:020000040000fa
:04004400da020000dc
:020000040000fa
:04004800da020000d8
:020000040000fa
:04012c00da020000f3
:020000040000fa
:04005400da020000cc
:020000040000fa
:04005800da020000c8
:020000040000fa
:080000000002040000000000f2
:020000040000fa
:100400002f8420000eff20000e0188000000000055
:10041000000020000000e000020032000001200087
:100420002002880014000700660207000000e000b8
:1004300003003a0000a32000010020000200370062
:100440000000200001002000810f70000100320038
:1004500014000700000020000000e000020032004d
:1004600000000200000000009809020000000000e7
:100470000040da000000fe004440a9000000200017
:100480000000e0000300320000002000a00188000e
:100490004440a800000006008a1f78008b1f7800e7
:1004a0000000060091018800800478000000eb0045
:1004b0001a003700e284440032a0b4009905ba0063
:1004c000e284440032a0b4009906ba00e2844400f9
:1004d00032a0b4000006eb00476fde00fd07b2005b
:1004e000636ce10003003a00ebff07000000eb0043
:1004f0000a003700606ce10004003a00005deb0088
:100500008b05e900fdff3e00040037006168e10053
:10051000010032000086eb000b00070019c7ba008b
:100520001905ba000e04e00003003a000a00e000da
:10053000e0ff3a0000000600fe07b2009e018800be
:100540008a047800f5ff3700395dba008b05e900b1
:100550000c003200295dba008b05e900080032006a
:100560000c00e00003003a00e284440032a0b40032
:10057000f5ff370019ddba008b05e900faff3a00f4
:100580008904e800e184440032a0b40000000600c1
:100590003400f800881f780008002000a8018800b7
:1005a0004f0478003808a8008460a9003400f900de
:1005b000004006000040da000000fe0003f0a20048
:1005c000889fbe008a9fbe008c1f78006f010700c5
:1005d000760133006450e1004f0032006420e100f6
:1005e0005200320003826c0007003b000905d00076
:1005f0000306d000820f54000c065d000200390093
:1006000002003200890178000306780085825500d7
:1006100004003d000003fd008103fd008502ea00a7
:100620008b854200840f720002003b0060001000c6
:10063000e08018006011b8000005eb007a28e100a6
:100640000a00390006007800c75ddd00f707b20038
:10065000878075002d003700828171000a017800c3
:10066000610560008180d1000080d3008502e9002f
:10067000f9ff3b00060440008784480002003b006d
:1006800060041400e0841c000988a3000700320005
:100690008a81710082817100610164008904d10046
:1006a0000884d3008b05e800170037000978a30001
:1006b00013003a000b00e000130034008b05e90042
:1006c0000804440089844c000a4474000978a3009b
:1006d0000d003a000b00e000070034008b05e90034
:1006e0000804440089844c0001003a000b002000fb
:1006f0000978a300f7ff32000001eb000200370089
:10070000828171000a017800e50007000cf0a70063
:1007100001f0a0002e0137006420e10002003a0041
:10072000838f6c002e0133000801be000200be0062
:1007300027013700889fbe008a9fbe008c1f78006b
:10074000120107001901330003866c006450e100b8
:100750002e0032006420e100330032006150e100dd
:100760002f0032006120e100310032008585550004
:10077000eb07b00009002000080420000500370046
:100780000804440089844c000a0031000603430039
:1007900087834b000001530081815b00f8ff330029
:1007a0000203be000800a0000804440089844c0035
:1007b000f6ff3900c639dd00830173000100320005
:1007c000130020008904d1000884d3000998a300f5
:1007d000050032000800a7000300a0008904d10032
:1007e0000884d3008b05e8008904d1000884d30075
:1007f0000001eb000281d200a900070001f0a10076
:100800000cf0a70001f0a000f10037006420e10027
:10081000f30032000801be000200be00f7ff3700ff
:100820006120e100ee0032006000b800f3ff370005
:100830000000200001f82700f0ff3700140020001e
:1008400045013700f4ff2f00430137000001be00cf
:10085000b90007000470a70003f0a1006509b1000a
:10086000160032000d0035006828e1000600350052
:10087000f0ff2f00f1ff27000300e00013003b0012
:1008800001002800000005000000400081804800b1
:100890008502e900fcff3a0008003700f88f4200ab
:1008a00002003c008000eb00000005008100d10048
:1008b0000080d3008502e800fcff3a000300e0005e
:1008c00002003b0060001000e080180000000600fd
:1008d0000001be00980007000470a70003f0a1000b
:1008e00003f8a30013003a006509b10010003200bc
:1008f000090035006928e1000200350001002800e8
:100900000000050000004000818048008502e900e9
:10091000fcff3a0000000600f88f42000500350099
:100920008100d1000080d3008502e800fcff3a007e
:10093000000006008000eb00000005000001eb0055
:10094000de000700040032000200200003f823004c
:1009500001f0a70019ff07000000060004002000b6
:1009600000003700889fbe008a9fbe008c1f780061
:100970004f26dd00850007008c0033006120e10078
:10098000430032006250e10041003e003e00390069
:100990006420e1003c003200058255000f003b005e
:1009a0000402e80038003a00800f5300818f5b009a
:1009b000350034000800be0003f0a10001f0a600dd
:1009c00003f0a0000cf0a700fdfe07008000370038
:1009d0000603430087834b000c4646000005530086
:1009e00081855b00020033000a03be000c00a000fa
:1009f0000402e900f6ff3b0085057800060243008b
:100a000087824b0004003a006000b80009f0a7009c
:100a100001f0a0006e0037000002520081825a00ef
:100a20000704e000040033000603430087834b0003
:100a30008b05e900faff3700090578000604be00bf
:100a40000203be006011b80015000700e00f52005d
:100a5000e08f5a000700350002003c000c08a3009c
:100a6000040032000601be0003f0a0000cf0a70055
:100a7000d3fe07000a85680001f0a1000af0a70074
:100a800001f0a000520037000800be0050003700ff
:100a9000100220000cf0a600004288005000370031
:100aa00081002000618055000b003d000b002000fc
:100ab00061fe2f000100e1001d0034008281710001
:100ac000610164008904d1000884d3000000e800bb
:100ad000faff3a007100200061006400030070001a
:100ae000020060000900320061044400e0844c0010
:100af0000988a500050032008b05e8006808e100c0
:100b000002003a008904d1000884d300f20f2000cb
:100b10000258e10005003d00c75ddd00f907b200a5
:100b20008980750008007800000006000bf8270097
:100b30008b00780000000500c70ade00f107b20054
:100b4000f50fb20008003200e1cf4200020032008f
:100b50000170a00024000500810f70000100320028
:100b60000408050044000500810f700002003a00ef
:100b7000140005008502e9000000400081c0480023
:100b8000fcff3b000170a000240005000004be0033
:100b9000e9ff07000003be000405be000200be001e
:100ba000e5ff0700844f7500000006000200be004c
:100bb0006450e100050036006420e10002003600c8
:100bc0000968a30001003a000800be000160a0000f
:100bd0004f0678004f05be004f04be00000006001f
:100be000f0ff2f00f1ff2700f9ff3700889fbe00bc
:100bf0008a9fbe008c1f7800e4ff0700ebff3300e4
:100c000003866c006450e100240032006420e1009f
:100c1000270032006150e100220032006120e10033
:100c2000210032008b854200eb07b1000134b8008f
:100c3000003ab8000804420089844a00013ab8002a
:100c40000030b8008880400009014a0004003300e9
:100c50000000400081804800020149008b05e90046
:100c6000c909dd008301700001003200130020007b
:100c7000c814de004814dd004709de001200b2008f
:100c8000c808de000884700085ff070001f0a1009d
:100c90000cf0a70001f0a000cdff37006120e100bb
:100ca000cfff32000801be000200be00f7ff370090
:100cb0006150e100fcff3a00c9ff3700889fbe0089
:100cc0008a9fbe000003be009bff070085057800d9
:100cd00082815200020020006220e10004003a00fc
:100ce000f307b100040035007718e1000400350077
:100cf0000600be00140037006000b8000f00370087
:100d0000f50f2000faff2f008502d1000a85d300dd
:100d10008301e900fcff3b00818462000004650060
:100d2000890f7400f2ff32008582ea000a85ea002a
:100d3000818462000004650059ff070007f0a700e6
:100d400001f0a0000081eb000200e0004f05be00b2
:100d50004f04be0000000600889fbe008a9fbe00b0
:100d6000841f780089ff07004f00780011003300ce
:100d7000f0ff2f00838f6c0006003b000405650028
:100d80000a00a7000800370009f0a60010002000a4
:100d900008003700820f5400838f5c000300390085
:100da0001000200001003e000000200009f0a70014
:100db0000000ea004f05be004f04be000000e00046
:080dc000000006000000050020
:020000040000fa
:0200000401f009
:04001c00dfff000002
:020000040000fa
:0200000401f009
:04001800f0000000f4
:020000040000fa
:0200000401f009
:040014005f00000089
:020000040000fa
:0200000401f009
:04001000620000008a
:020000040000fa
:0200000401f009
:04000c00820000006e
:020000040000fa
:04003400c8020000fe
:020000040000fa
:100dc800ec874700889fbe008a9fbe008c9fbe00ac
:100dd8008e1f78000005be008204780003047800a6
:100de8006011b800090078008800780091fe0700bb
:100df8000000e00011003a006011b8000a00be00cf
:100e08008cfe07000000e00023003a000907780084
:100e1800080378008e017800060178000300780046
:100e2800820078004f0778004f06be004f05be00cd
:100e38004f04be00cf00b100000006006011b800ea
:100e48000a00be007bfe07000000e0001f003a0019
:100e58000800be0001017800800178006000b80039
:100e680032fe070000077800010378008e01780041
:100e78000601780003007800820078004f077800a8
:100e88004f06be004f05be004f04be00cf00b100a4
:100e980000000600e9ff37000a0778000b03780016
:100ea8008e0178000601780003007800820078003f
:100eb8004f0778004f06be004f05be004f04be0026
:100ec800cf00b10000000600dcff37000901780000
:100ed800880178000a00be009efe0700d0b79f0078
:100ee800c1b79f0000077800010378006011b800bf
:100ef8000e0078008600780086bf9f004dfe070030
:100f08000000e000550032000900780088007800f1
:100f180088fe0700090178008801780045fe07006f
:100f28000fbb97000000e0002e0035001cc0b30086
:100f38006011b800090078008800780086bf9f001b
:100f48003cfe07000fbb97000000e00001003500e1
:100f58000046eb001dc0b3006011b8008a0078009d
:100f68000b00780001027800800278000400be00bf
:100f780086bf9f002ffe07000fbb97000000e00010
:100f8800010035008046eb008d4f5600a1ff32006e
:100f98000800be000101780080017800dfb29700e8
:100fa8004fb29700050078008400780082fd0700a2
:100fb80000077800010378008e01780006017800a8
:100fc80003007800820078004f0778004f06be00c3
:100fd8004f05be004f04be00cf00b1000000060060
:100fe80096ff370009017800880178000a00be00e2
:100ff800cefd07000006be000df0a1000200200093
:1010080003f023000c00be006bfd070049fe07003b
:101018000001be000c00be0066fd07000002be0015
:1010280005f0a10002002000034023000c00be00d0
:10103800e4b79f00f5b79f00eafe07000001be0075
:101048006fb29700ffb297000400be00f9fd0700d9
:101058000fbb97000000e000b4ff3c000007eb0066
:101068000e0378008e0178000601780003007800ee
:10107800820078004f0778004f06be004f05be007b
:101088004f04be00cf00b100000006006bff370020
:101098000400fa00889fbe008a9fbe008c9fbe0095
:1010a800dc418000ed418000d2cc2c00c3dc230061
:1010b8000c00be00cbfe07001efe0700e1fd070086
:1010c8004200dd000a802000000045001000be003c
:1010d80018fe070002002000037824001dfe070008
:1010e80080047800010478000900780088007800fe
:1010f8000001be0082bf9f0093bf9f006011b8002f
:10110800ccfd07000000e00066003d000fb8970026
:101118009fb8970001f0a200ebfd07008005ea00e8
:101128000200200003122400d0418000e141800029
:1011380023ff0700c3fd07004200dd000000450053
:101148001000be00fbfd0700020020000378240009
:1011580000fe070080047800010478000900780088
:10116800880078000001be0082bf9f0093bf9f00e7
:101178006011b800affd07000000e0003e003d0030
:101188000fb897009fb8970001f0a200cefd0700a6
:101198000000ea00a01688006b1688001816800068
:1011a8004944de0061446400c342ab0015003200cc
:1011b8000884fb00080444000804e8008800440090
:1011c800f841800061006400008040008002b000a7
:1011d800ea4478003a28ef003c28ef00e1c46400b4
:1011e800e18464000800a10008847400f8418800c4
:1011f8004f06be004f05be004f04be000080fa0037
:101208000000060002002000832c24000c00be0011
:101218008afd07000000e000e5ff3d000884fb00b0
:101228000804440088004400f8418000610064001c
:10123800008040008002b000ea4478000904e00021
:101248001d003a00dc418800ed4188008044eb0035
:10125800e18464000800a10008847400f841880053
:101268004f06be004f05be004f04be000080fa00c6
:1012780000000600e3ff37000900780088007800c6
:1012880091fd0700a01688006b16880018168000cc
:101298004944de0061446400c342ab00c4ff3a0025
:1012a800d8ff3700090078008800780086fd07001d
:1012b800800578009aff3700d2cc2c00c3dc2300cd
:1012c8000c00be00bcfc0700d0418800e14188004a
:1012d800e1c46400e18464000800a100088474008b
:1012e800f84188004f06be004f05be004f04be00ff
:1012f8000080fa0000000600c2ff37000000060068
:10130800000006003808e200feff320042a0a800f4
:101318003808a9005eff070042a0a9003808e200cb
:10132800f8ff3200f9ff37004387ab0004003200b2
:10133800103a80004c00de00640060002f0032008c
:10134800e0062000303a880050002000203a88004b
:10135800a1092000320020008007200033742000fb
:101368008049780081497800824978007105200019
:1013780012002000600420002374200080497800b7
:101388008149780082497800c01f200060198800d0
:1013980000f02f0040168800801688000200270001
:1013a80001002300133a800003006100810f500000
:1013b800fcff3a0042a7ab00feff3200cfff070058
:1013c8000421ef00f0ff2800a400b60000d0a00020
:1013d800200588008460a9009460a800f0342c00df
:1013e800100888000001200020088800e0342c0044
:1013f8000008880005e1a800c2ff0700a209200034
:1014080081072000337420008149780082497800e0
:101418008049780071052000120020006004200037
:101428002374200080497800814978008249780037
:10143800000000000000000001002700123a8000b0
:1014480002806000beff3200123a80000280600015
:08145800faff3a00baff370069
:020000040000fa
:1014600000080000380000000200000000007c00be
:1014700042000000c040000000b6420000009e0094
:1014800042000000cc42000000da42000000fa00f6
:1014900042000000e040000000fe42000000de00cc
:1014a00042000100000001000100000001000100f5
:1014b00001000000000000003808000008000000e3
:1014c00000000000400800000200000000000000d2
:0414d0000000000018
:00000001FF
